{
  "contractName": "SuitList",
  "abi": [
    {
      "constant": true,
      "inputs": [
        {
          "name": "",
          "type": "uint256"
        }
      ],
      "name": "suits",
      "outputs": [
        {
          "name": "id",
          "type": "uint256"
        },
        {
          "name": "userId",
          "type": "bytes32"
        },
        {
          "name": "userIdAccused",
          "type": "bytes32"
        },
        {
          "name": "content",
          "type": "bytes32"
        },
        {
          "name": "documentFile",
          "type": "bytes32"
        },
        {
          "name": "accusedContent",
          "type": "bytes32"
        },
        {
          "name": "accusedDocumentFile",
          "type": "bytes32"
        },
        {
          "name": "openDate",
          "type": "bytes32"
        },
        {
          "name": "closeDate",
          "type": "bytes32"
        },
        {
          "name": "verdict",
          "type": "bytes32"
        }
      ],
      "payable": false,
      "stateMutability": "view",
      "type": "function",
      "signature": "0x4dc30437"
    },
    {
      "constant": true,
      "inputs": [],
      "name": "suitCount",
      "outputs": [
        {
          "name": "",
          "type": "uint256"
        }
      ],
      "payable": false,
      "stateMutability": "view",
      "type": "function",
      "signature": "0xb8d776a8"
    },
    {
      "inputs": [],
      "payable": false,
      "stateMutability": "nonpayable",
      "type": "constructor",
      "signature": "constructor"
    },
    {
      "anonymous": false,
      "inputs": [
        {
          "indexed": false,
          "name": "id",
          "type": "uint256"
        },
        {
          "indexed": false,
          "name": "userId",
          "type": "bytes32"
        },
        {
          "indexed": false,
          "name": "userIdAccused",
          "type": "bytes32"
        },
        {
          "indexed": false,
          "name": "content",
          "type": "bytes32"
        },
        {
          "indexed": false,
          "name": "documentFile",
          "type": "bytes32"
        },
        {
          "indexed": false,
          "name": "accusedContent",
          "type": "bytes32"
        },
        {
          "indexed": false,
          "name": "accusedDocumentFile",
          "type": "bytes32"
        },
        {
          "indexed": false,
          "name": "openDate",
          "type": "bytes32"
        },
        {
          "indexed": false,
          "name": "closeDate",
          "type": "bytes32"
        },
        {
          "indexed": false,
          "name": "verdict",
          "type": "bytes32"
        }
      ],
      "name": "SuitCreated",
      "type": "event",
      "signature": "0xb31565cd6bd5e632e2f32975048416329d12eb60629dee3f56f288fa2b179749"
    },
    {
      "anonymous": false,
      "inputs": [
        {
          "indexed": false,
          "name": "id",
          "type": "uint256"
        },
        {
          "indexed": false,
          "name": "_closeDate",
          "type": "bytes32"
        },
        {
          "indexed": false,
          "name": "verdict",
          "type": "bytes32"
        }
      ],
      "name": "SuitCompleted",
      "type": "event",
      "signature": "0x94967b3b2e6db50432a768af4aee86963591440e6d84f9b89f6bd53ac9d151fc"
    },
    {
      "constant": false,
      "inputs": [
        {
          "name": "_userId",
          "type": "bytes32"
        },
        {
          "name": "_userIdAccused",
          "type": "bytes32"
        },
        {
          "name": "_content",
          "type": "bytes32"
        },
        {
          "name": "_accusedContent",
          "type": "bytes32"
        },
        {
          "name": "_documentFile",
          "type": "bytes32"
        },
        {
          "name": "_accusedDocumentFile",
          "type": "bytes32"
        },
        {
          "name": "_openDate",
          "type": "bytes32"
        },
        {
          "name": "_closeDate",
          "type": "bytes32"
        },
        {
          "name": "_verdict",
          "type": "bytes32"
        }
      ],
      "name": "createSuit",
      "outputs": [],
      "payable": false,
      "stateMutability": "nonpayable",
      "type": "function",
      "signature": "0x486fda51"
    },
    {
      "constant": false,
      "inputs": [
        {
          "name": "_id",
          "type": "uint256"
        },
        {
          "name": "_closeDate",
          "type": "bytes32"
        },
        {
          "name": "_verdict",
          "type": "bytes32"
        }
      ],
      "name": "verdictGiven",
      "outputs": [],
      "payable": false,
      "stateMutability": "nonpayable",
      "type": "function",
      "signature": "0x062176e1"
    }
  ],
  "bytecode": "0x60806040526000805534801561001457600080fd5b506100cf7f31000000000000000000000000000000000000000000000000000000000000007f32000000000000000000000000000000000000000000000000000000000000007f416e7572616720636f6e74656e740000000000000000000000000000000000007f616e757261670000000000000000000000000000000000000000000000000000808080807f50617373656400000000000000000000000000000000000000000000000000006401000000006100d4810204565b610237565b60008081548092919060010191905055506101406040519081016040528060005481526020018a8152602001898152602001888152602001868152602001878152602001858152602001848152602001838152602001828152506001600080548152602001908152602001600020600082015181600001556020820151816001015560408201518160020155606082015181600301556080820151816004015560a0820151816005015560c0820151816006015560e08201518160070155610100820151816008015561012082015181600901559050507fb31565cd6bd5e632e2f32975048416329d12eb60629dee3f56f288fa2b1797496000548a8a8a898b8a8a8a8a604051808b81526020018a81526020018981526020018881526020018781526020018681526020018581526020018481526020018381526020018281526020019a505050505050505050505060405180910390a1505050505050505050565b610550806102466000396000f3fe6080604052600436106100615763ffffffff7c0100000000000000000000000000000000000000000000000000000000600035041663062176e18114610066578063486fda511461009e5780634dc30437146100fa578063b8d776a814610174575b600080fd5b34801561007257600080fd5b5061009c6004803603606081101561008957600080fd5b508035906020810135906040013561019b565b005b3480156100aa57600080fd5b5061009c60048036036101208110156100c257600080fd5b5080359060208101359060408101359060608101359060808101359060a08101359060c08101359060e0810135906101000135610313565b34801561010657600080fd5b506101246004803603602081101561011d57600080fd5b5035610476565b604080519a8b5260208b0199909952898901979097526060890195909552608088019390935260a087019190915260c086015260e085015261010084015261012083015251908190036101400190f35b34801561018057600080fd5b506101896104ca565b60408051918252519081900360200190f35b6101a36104d0565b6001600085815260200190815260200160002061014060405190810160405290816000820154815260200160018201548152602001600282015481526020016003820154815260200160048201548152602001600582015481526020016006820154815260200160078201548152602001600882015481526020016009820154815250509050818161012001818152505082816101000181815250508060016000868152602001908152602001600020600082015181600001556020820151816001015560408201518160020155606082015181600301556080820151816004015560a0820151816005015560c0820151816006015560e08201518160070155610100820151816008015561012082015181600901559050507f94967b3b2e6db50432a768af4aee86963591440e6d84f9b89f6bd53ac9d151fc8482610100015183610120015160405180848152602001838152602001828152602001935050505060405180910390a150505050565b60008081548092919060010191905055506101406040519081016040528060005481526020018a8152602001898152602001888152602001868152602001878152602001858152602001848152602001838152602001828152506001600080548152602001908152602001600020600082015181600001556020820151816001015560408201518160020155606082015181600301556080820151816004015560a0820151816005015560c0820151816006015560e08201518160070155610100820151816008015561012082015181600901559050507fb31565cd6bd5e632e2f32975048416329d12eb60629dee3f56f288fa2b1797496000548a8a8a898b8a8a8a8a604051808b81526020018a81526020018981526020018881526020018781526020018681526020018581526020018481526020018381526020018281526020019a505050505050505050505060405180910390a1505050505050505050565b6001602052806000526040600020600091509050806000015490806001015490806002015490806003015490806004015490806005015490806006015490806007015490806008015490806009015490508a565b60005481565b6040805161014081018252600080825260208201819052918101829052606081018290526080810182905260a0810182905260c0810182905260e0810182905261010081018290526101208101919091529056fea165627a7a7230582002129307f146bbb3cdb83da641d0bbbebb6d61972ac14b80a3e274de2c0a8d680029",
  "source": "pragma solidity ^0.5.0;\n\ncontract SuitList {\n  uint256 public suitCount = 0;\n\n  struct Suit {\n    uint256 id;\n    bytes32 userId;\n    bytes32 userIdAccused;\n    bytes32 content;\n    bytes32 documentFile;\n    bytes32 accusedContent;\n    bytes32 accusedDocumentFile;\n    bytes32 openDate;\n    bytes32 closeDate;\n    bytes32 verdict;\n  }\n\n  mapping(uint256 => Suit) public suits;\n\n  event SuitCreated(\n    uint256 id,\n    bytes32 userId,\n    bytes32 userIdAccused,\n    bytes32 content,\n    bytes32 documentFile,\n    bytes32 accusedContent,\n    bytes32 accusedDocumentFile,\n    bytes32 openDate,\n    bytes32 closeDate,\n    bytes32 verdict\n  );\n\n  event SuitCompleted(\n    uint256 id,\n    bytes32 _closeDate,\n    bytes32 verdict\n  );\n\n  constructor() public {\n    createSuit('1','2','Anurag content', 'anurag', 'anurag', 'anurag', 'anurag', 'anurag', 'Passed');\n  }\n\n  function createSuit(\n    bytes32 _userId,\n    bytes32  _userIdAccused,\n    bytes32  _content,\n    bytes32  _accusedContent,\n    bytes32  _documentFile,\n    bytes32  _accusedDocumentFile,\n    bytes32  _openDate,\n    bytes32  _closeDate,\n    bytes32  _verdict\n  ) public {\n    suitCount ++;\n    suits[suitCount] = Suit(suitCount,\n                        _userId,\n                        _userIdAccused,\n                        _content,\n                        _documentFile,\n                        _accusedContent,\n                        _accusedDocumentFile,\n                        _openDate,\n                        _closeDate,\n                        _verdict);\n\n    emit SuitCreated(suitCount,\n          _userId,\n          _userIdAccused,\n          _content,\n          _documentFile,\n          _accusedContent,\n          _accusedDocumentFile,\n          _openDate,\n          _closeDate,\n          _verdict);\n  }\n\n  function verdictGiven(uint256 _id, bytes32  _closeDate, bytes32  _verdict) public {\n    Suit memory _suit = suits[_id];\n    _suit.verdict = _verdict;\n    _suit.closeDate = _closeDate;\n    suits[_id] = _suit;\n    emit SuitCompleted(_id, _suit.closeDate, _suit.verdict);\n  }\n}",
  "sourcePath": "/Users/anurag/Work/blockchain-project/contracts/SuitList.sol",
  "compiler": {
    "name": "solc",
    "version": "0.5.0+commit.1d4f565a.Emscripten.clang"
  },
  "schemaVersion": "3.0.1",
  "updatedAt": "2019-11-14T19:07:03.206Z",
  "devdoc": {
    "methods": {}
  },
  "userdoc": {
    "methods": {}
  }
}