{
  "contractName": "SuitList",
  "abi": [
    {
      "constant": true,
      "inputs": [
        {
          "name": "",
          "type": "uint256"
        }
      ],
      "name": "suits",
      "outputs": [
        {
          "name": "id",
          "type": "uint256"
        },
        {
          "name": "suitId",
          "type": "string"
        },
        {
          "name": "suitHash",
          "type": "string"
        }
      ],
      "payable": false,
      "stateMutability": "view",
      "type": "function",
      "signature": "0x4dc30437"
    },
    {
      "constant": true,
      "inputs": [],
      "name": "suitCount",
      "outputs": [
        {
          "name": "",
          "type": "uint256"
        }
      ],
      "payable": false,
      "stateMutability": "view",
      "type": "function",
      "signature": "0xb8d776a8"
    },
    {
      "inputs": [],
      "payable": false,
      "stateMutability": "nonpayable",
      "type": "constructor",
      "signature": "constructor"
    },
    {
      "anonymous": false,
      "inputs": [
        {
          "indexed": false,
          "name": "id",
          "type": "uint256"
        },
        {
          "indexed": false,
          "name": "suitId",
          "type": "string"
        },
        {
          "indexed": false,
          "name": "suitHash",
          "type": "string"
        }
      ],
      "name": "SuitCreated",
      "type": "event",
      "signature": "0x9400fe982162066fc0754297726f960164664cd5440c99162f9d70f3c4cfc06f"
    },
    {
      "anonymous": false,
      "inputs": [
        {
          "indexed": false,
          "name": "id",
          "type": "uint256"
        },
        {
          "indexed": false,
          "name": "suitId",
          "type": "string"
        },
        {
          "indexed": false,
          "name": "suitHash",
          "type": "string"
        }
      ],
      "name": "SuitCompleted",
      "type": "event",
      "signature": "0x4dd20d1305b11f3528402ed1053d79c9c311272688098c2a0890c454bb5a0c3b"
    },
    {
      "constant": false,
      "inputs": [
        {
          "name": "suitId",
          "type": "string"
        },
        {
          "name": "suitHash",
          "type": "string"
        }
      ],
      "name": "createSuit",
      "outputs": [],
      "payable": false,
      "stateMutability": "nonpayable",
      "type": "function",
      "signature": "0x8988ace7"
    },
    {
      "constant": false,
      "inputs": [
        {
          "name": "_id",
          "type": "uint256"
        },
        {
          "name": "_suitId",
          "type": "string"
        },
        {
          "name": "_suitHash",
          "type": "string"
        }
      ],
      "name": "updateHash",
      "outputs": [],
      "payable": false,
      "stateMutability": "nonpayable",
      "type": "function",
      "signature": "0x1615642c"
    }
  ],
  "bytecode": "0x6080604052600080553480156200001557600080fd5b506200009b6040805190810160405280600181526020017f32000000000000000000000000000000000000000000000000000000000000008152506040805190810160405280600e81526020017f416e7572616720636f6e74656e74000000000000000000000000000000000000815250620000a1640100000000026401000000009004565b620002cb565b6000805460019081018083556040805160608101825282815260208082018881528284018890529386528481529190942084518155915180519293620000f09390850192919091019062000226565b50604082015180516200010e91600284019160209091019062000226565b509050507f9400fe982162066fc0754297726f960164664cd5440c99162f9d70f3c4cfc06f6000548383604051808481526020018060200180602001838103835285818151815260200191508051906020019080838360005b838110156200018157818101518382015260200162000167565b50505050905090810190601f168015620001af5780820380516001836020036101000a031916815260200191505b50838103825284518152845160209182019186019080838360005b83811015620001e4578181015183820152602001620001ca565b50505050905090810190601f168015620002125780820380516001836020036101000a031916815260200191505b509550505050505060405180910390a15050565b828054600181600116156101000203166002900490600052602060002090601f016020900481019282601f106200026957805160ff191683800117855562000299565b8280016001018555821562000299579182015b82811115620002995782518255916020019190600101906200027c565b50620002a7929150620002ab565b5090565b620002c891905b80821115620002a75760008155600101620002b2565b90565b610a7a80620002db6000396000f3fe6080604052600436106100615763ffffffff7c01000000000000000000000000000000000000000000000000000000006000350416631615642c81146100665780634dc30437146101a95780638988ace7146102b8578063b8d776a8146103f2575b600080fd5b34801561007257600080fd5b506101a76004803603606081101561008957600080fd5b813591908101906040810160208201356401000000008111156100ab57600080fd5b8201836020820111156100bd57600080fd5b803590602001918460018302840111640100000000831117156100df57600080fd5b91908080601f016020809104026020016040519081016040528093929190818152602001838380828437600092019190915250929594936020810193503591505064010000000081111561013257600080fd5b82018360208201111561014457600080fd5b8035906020019184600183028401116401000000008311171561016657600080fd5b91908080601f016020809104026020016040519081016040528093929190818152602001838380828437600092019190915250929550610419945050505050565b005b3480156101b557600080fd5b506101d3600480360360208110156101cc57600080fd5b50356106d8565b604051808481526020018060200180602001838103835285818151815260200191508051906020019080838360005b8381101561021a578181015183820152602001610202565b50505050905090810190601f1680156102475780820380516001836020036101000a031916815260200191505b50838103825284518152845160209182019186019080838360005b8381101561027a578181015183820152602001610262565b50505050905090810190601f1680156102a75780820380516001836020036101000a031916815260200191505b509550505050505060405180910390f35b3480156102c457600080fd5b506101a7600480360360408110156102db57600080fd5b8101906020810181356401000000008111156102f657600080fd5b82018360208201111561030857600080fd5b8035906020019184600183028401116401000000008311171561032a57600080fd5b91908080601f016020809104026020016040519081016040528093929190818152602001838380828437600092019190915250929594936020810193503591505064010000000081111561037d57600080fd5b82018360208201111561038f57600080fd5b803590602001918460018302840111640100000000831117156103b157600080fd5b91908080601f016020809104026020016040519081016040528093929190818152602001838380828437600092019190915250929550610810945050505050565b3480156103fe57600080fd5b5061040761098b565b60408051918252519081900360200190f35b610421610991565b60008481526001602081815260409283902083516060810185528154815281840180548651600296821615610100026000190190911695909504601f810185900485028601850190965285855290949193858401939092908301828280156104ca5780601f1061049f576101008083540402835291602001916104ca565b820191906000526020600020905b8154815290600101906020018083116104ad57829003601f168201915b5050509183525050600282810180546040805160206001841615610100026000190190931694909404601f8101839004830285018301909152808452938101939083018282801561055c5780601f106105315761010080835404028352916020019161055c565b820191906000526020600020905b81548152906001019060200180831161053f57829003601f168201915b5050509190925250505060208082018581526040808401869052600088815260018085529190208451815591518051949550859492936105a293928501929101906109b3565b50604082015180516105be9160028401916020909101906109b3565b509050507f4dd20d1305b11f3528402ed1053d79c9c311272688098c2a0890c454bb5a0c3b8482602001518360400151604051808481526020018060200180602001838103835285818151815260200191508051906020019080838360005b8381101561063557818101518382015260200161061d565b50505050905090810190601f1680156106625780820380516001836020036101000a031916815260200191505b50838103825284518152845160209182019186019080838360005b8381101561069557818101518382015260200161067d565b50505050905090810190601f1680156106c25780820380516001836020036101000a031916815260200191505b509550505050505060405180910390a150505050565b600160208181526000928352604092839020805481840180548651600296821615610100026000190190911695909504601f810185900485028601850190965285855290949193929091908301828280156107745780601f1061074957610100808354040283529160200191610774565b820191906000526020600020905b81548152906001019060200180831161075757829003601f168201915b50505060028085018054604080516020601f60001961010060018716150201909416959095049283018590048502810185019091528181529596959450909250908301828280156108065780601f106107db57610100808354040283529160200191610806565b820191906000526020600020905b8154815290600101906020018083116107e957829003601f168201915b5050505050905083565b600080546001908101808355604080516060810182528281526020808201888152828401889052938652848152919094208451815591518051929361085d939085019291909101906109b3565b50604082015180516108799160028401916020909101906109b3565b509050507f9400fe982162066fc0754297726f960164664cd5440c99162f9d70f3c4cfc06f6000548383604051808481526020018060200180602001838103835285818151815260200191508051906020019080838360005b838110156108ea5781810151838201526020016108d2565b50505050905090810190601f1680156109175780820380516001836020036101000a031916815260200191505b50838103825284518152845160209182019186019080838360005b8381101561094a578181015183820152602001610932565b50505050905090810190601f1680156109775780820380516001836020036101000a031916815260200191505b509550505050505060405180910390a15050565b60005481565b6060604051908101604052806000815260200160608152602001606081525090565b828054600181600116156101000203166002900490600052602060002090601f016020900481019282601f106109f457805160ff1916838001178555610a21565b82800160010185558215610a21579182015b82811115610a21578251825591602001919060010190610a06565b50610a2d929150610a31565b5090565b610a4b91905b80821115610a2d5760008155600101610a37565b9056fea165627a7a7230582090ebc9c06a84f3201df37a5806886cf0a854c79715bd08a63ed758cf6bfded280029",
  "source": "pragma solidity ^0.5.0;\n\ncontract SuitList {\n  uint256 public suitCount = 0;\n\n  struct Suit {\n    uint256 id;\n    string suitId;\n    string suitHash;\n  }\n\n  mapping(uint256 => Suit) public suits;\n\n  event SuitCreated(\n    uint256 id,\n    string suitId,\n    string suitHash\n  );\n\n  event SuitCompleted(\n    uint256 id,\n    string suitId,\n    string suitHash\n  );\n\n  constructor() public {\n    createSuit('2','Anurag content');\n  }\n\n  function createSuit(\n    string memory suitId,\n    string memory suitHash\n  ) public {\n    suitCount ++;\n    suits[suitCount] = Suit(suitCount, suitId, suitHash);\n\n    emit SuitCreated(suitCount, suitId, suitHash);\n  }\n\n  function updateHash(uint256 _id, string memory _suitId, string memory _suitHash) public {\n    Suit memory _suit = suits[_id];\n    _suit.suitId = _suitId;\n    _suit.suitHash = _suitHash;\n    suits[_id] = _suit;\n    emit SuitCompleted(_id, _suit.suitId, _suit.suitHash);\n  }\n}",
  "sourcePath": "/Users/anurag/Work/blockchain-project/contracts/SuitList.sol",
  "compiler": {
    "name": "solc",
    "version": "0.5.0+commit.1d4f565a.Emscripten.clang"
  },
  "schemaVersion": "3.0.1",
  "updatedAt": "2019-11-17T04:42:16.720Z",
  "devdoc": {
    "methods": {}
  },
  "userdoc": {
    "methods": {}
  }
}